{
  "_format": "hh-sol-artifact-1",
  "contractName": "BBitesToken",
  "sourceName": "contracts/BBitesToken.sol",
  "abi": [
    {
      "inputs": [],
      "stateMutability": "nonpayable",
      "type": "constructor"
    },
    {
      "inputs": [],
      "name": "AccessControlBadConfirmation",
      "type": "error"
    },
    {
      "inputs": [
        {
          "internalType": "address",
          "name": "account",
          "type": "address"
        },
        {
          "internalType": "bytes32",
          "name": "neededRole",
          "type": "bytes32"
        }
      ],
      "name": "AccessControlUnauthorizedAccount",
      "type": "error"
    },
    {
      "inputs": [
        {
          "internalType": "address",
          "name": "spender",
          "type": "address"
        },
        {
          "internalType": "uint256",
          "name": "allowance",
          "type": "uint256"
        },
        {
          "internalType": "uint256",
          "name": "needed",
          "type": "uint256"
        }
      ],
      "name": "ERC20InsufficientAllowance",
      "type": "error"
    },
    {
      "inputs": [
        {
          "internalType": "address",
          "name": "sender",
          "type": "address"
        },
        {
          "internalType": "uint256",
          "name": "balance",
          "type": "uint256"
        },
        {
          "internalType": "uint256",
          "name": "needed",
          "type": "uint256"
        }
      ],
      "name": "ERC20InsufficientBalance",
      "type": "error"
    },
    {
      "inputs": [
        {
          "internalType": "address",
          "name": "approver",
          "type": "address"
        }
      ],
      "name": "ERC20InvalidApprover",
      "type": "error"
    },
    {
      "inputs": [
        {
          "internalType": "address",
          "name": "receiver",
          "type": "address"
        }
      ],
      "name": "ERC20InvalidReceiver",
      "type": "error"
    },
    {
      "inputs": [
        {
          "internalType": "address",
          "name": "sender",
          "type": "address"
        }
      ],
      "name": "ERC20InvalidSender",
      "type": "error"
    },
    {
      "inputs": [
        {
          "internalType": "address",
          "name": "spender",
          "type": "address"
        }
      ],
      "name": "ERC20InvalidSpender",
      "type": "error"
    },
    {
      "inputs": [],
      "name": "EnforcedPause",
      "type": "error"
    },
    {
      "inputs": [],
      "name": "ExpectedPause",
      "type": "error"
    },
    {
      "anonymous": false,
      "inputs": [
        {
          "indexed": true,
          "internalType": "address",
          "name": "owner",
          "type": "address"
        },
        {
          "indexed": true,
          "internalType": "address",
          "name": "spender",
          "type": "address"
        },
        {
          "indexed": false,
          "internalType": "uint256",
          "name": "value",
          "type": "uint256"
        }
      ],
      "name": "Approval",
      "type": "event"
    },
    {
      "anonymous": false,
      "inputs": [
        {
          "indexed": false,
          "internalType": "address",
          "name": "account",
          "type": "address"
        }
      ],
      "name": "Paused",
      "type": "event"
    },
    {
      "anonymous": false,
      "inputs": [
        {
          "indexed": true,
          "internalType": "bytes32",
          "name": "role",
          "type": "bytes32"
        },
        {
          "indexed": true,
          "internalType": "bytes32",
          "name": "previousAdminRole",
          "type": "bytes32"
        },
        {
          "indexed": true,
          "internalType": "bytes32",
          "name": "newAdminRole",
          "type": "bytes32"
        }
      ],
      "name": "RoleAdminChanged",
      "type": "event"
    },
    {
      "anonymous": false,
      "inputs": [
        {
          "indexed": true,
          "internalType": "bytes32",
          "name": "role",
          "type": "bytes32"
        },
        {
          "indexed": true,
          "internalType": "address",
          "name": "account",
          "type": "address"
        },
        {
          "indexed": true,
          "internalType": "address",
          "name": "sender",
          "type": "address"
        }
      ],
      "name": "RoleGranted",
      "type": "event"
    },
    {
      "anonymous": false,
      "inputs": [
        {
          "indexed": true,
          "internalType": "bytes32",
          "name": "role",
          "type": "bytes32"
        },
        {
          "indexed": true,
          "internalType": "address",
          "name": "account",
          "type": "address"
        },
        {
          "indexed": true,
          "internalType": "address",
          "name": "sender",
          "type": "address"
        }
      ],
      "name": "RoleRevoked",
      "type": "event"
    },
    {
      "anonymous": false,
      "inputs": [
        {
          "indexed": true,
          "internalType": "address",
          "name": "from",
          "type": "address"
        },
        {
          "indexed": true,
          "internalType": "address",
          "name": "to",
          "type": "address"
        },
        {
          "indexed": false,
          "internalType": "uint256",
          "name": "value",
          "type": "uint256"
        }
      ],
      "name": "Transfer",
      "type": "event"
    },
    {
      "anonymous": false,
      "inputs": [
        {
          "indexed": false,
          "internalType": "address",
          "name": "account",
          "type": "address"
        }
      ],
      "name": "Unpaused",
      "type": "event"
    },
    {
      "inputs": [],
      "name": "DEFAULT_ADMIN_ROLE",
      "outputs": [
        {
          "internalType": "bytes32",
          "name": "",
          "type": "bytes32"
        }
      ],
      "stateMutability": "view",
      "type": "function"
    },
    {
      "inputs": [],
      "name": "MINTER_ROLE",
      "outputs": [
        {
          "internalType": "bytes32",
          "name": "",
          "type": "bytes32"
        }
      ],
      "stateMutability": "view",
      "type": "function"
    },
    {
      "inputs": [],
      "name": "PAUSER_ROLE",
      "outputs": [
        {
          "internalType": "bytes32",
          "name": "",
          "type": "bytes32"
        }
      ],
      "stateMutability": "view",
      "type": "function"
    },
    {
      "inputs": [
        {
          "internalType": "address",
          "name": "owner",
          "type": "address"
        },
        {
          "internalType": "address",
          "name": "spender",
          "type": "address"
        }
      ],
      "name": "allowance",
      "outputs": [
        {
          "internalType": "uint256",
          "name": "",
          "type": "uint256"
        }
      ],
      "stateMutability": "view",
      "type": "function"
    },
    {
      "inputs": [
        {
          "internalType": "address",
          "name": "spender",
          "type": "address"
        },
        {
          "internalType": "uint256",
          "name": "value",
          "type": "uint256"
        }
      ],
      "name": "approve",
      "outputs": [
        {
          "internalType": "bool",
          "name": "",
          "type": "bool"
        }
      ],
      "stateMutability": "nonpayable",
      "type": "function"
    },
    {
      "inputs": [
        {
          "internalType": "address",
          "name": "account",
          "type": "address"
        }
      ],
      "name": "balanceOf",
      "outputs": [
        {
          "internalType": "uint256",
          "name": "",
          "type": "uint256"
        }
      ],
      "stateMutability": "view",
      "type": "function"
    },
    {
      "inputs": [
        {
          "internalType": "uint256",
          "name": "value",
          "type": "uint256"
        }
      ],
      "name": "burn",
      "outputs": [],
      "stateMutability": "nonpayable",
      "type": "function"
    },
    {
      "inputs": [
        {
          "internalType": "address",
          "name": "account",
          "type": "address"
        },
        {
          "internalType": "uint256",
          "name": "value",
          "type": "uint256"
        }
      ],
      "name": "burnFrom",
      "outputs": [],
      "stateMutability": "nonpayable",
      "type": "function"
    },
    {
      "inputs": [],
      "name": "decimals",
      "outputs": [
        {
          "internalType": "uint8",
          "name": "",
          "type": "uint8"
        }
      ],
      "stateMutability": "view",
      "type": "function"
    },
    {
      "inputs": [
        {
          "internalType": "bytes32",
          "name": "role",
          "type": "bytes32"
        }
      ],
      "name": "getRoleAdmin",
      "outputs": [
        {
          "internalType": "bytes32",
          "name": "",
          "type": "bytes32"
        }
      ],
      "stateMutability": "view",
      "type": "function"
    },
    {
      "inputs": [
        {
          "internalType": "bytes32",
          "name": "role",
          "type": "bytes32"
        },
        {
          "internalType": "address",
          "name": "account",
          "type": "address"
        }
      ],
      "name": "grantRole",
      "outputs": [],
      "stateMutability": "nonpayable",
      "type": "function"
    },
    {
      "inputs": [
        {
          "internalType": "bytes32",
          "name": "role",
          "type": "bytes32"
        },
        {
          "internalType": "address",
          "name": "account",
          "type": "address"
        }
      ],
      "name": "hasRole",
      "outputs": [
        {
          "internalType": "bool",
          "name": "",
          "type": "bool"
        }
      ],
      "stateMutability": "view",
      "type": "function"
    },
    {
      "inputs": [
        {
          "internalType": "address",
          "name": "to",
          "type": "address"
        },
        {
          "internalType": "uint256",
          "name": "amount",
          "type": "uint256"
        }
      ],
      "name": "mint",
      "outputs": [],
      "stateMutability": "nonpayable",
      "type": "function"
    },
    {
      "inputs": [],
      "name": "name",
      "outputs": [
        {
          "internalType": "string",
          "name": "",
          "type": "string"
        }
      ],
      "stateMutability": "view",
      "type": "function"
    },
    {
      "inputs": [],
      "name": "pause",
      "outputs": [],
      "stateMutability": "nonpayable",
      "type": "function"
    },
    {
      "inputs": [],
      "name": "paused",
      "outputs": [
        {
          "internalType": "bool",
          "name": "",
          "type": "bool"
        }
      ],
      "stateMutability": "view",
      "type": "function"
    },
    {
      "inputs": [
        {
          "internalType": "bytes32",
          "name": "role",
          "type": "bytes32"
        },
        {
          "internalType": "address",
          "name": "callerConfirmation",
          "type": "address"
        }
      ],
      "name": "renounceRole",
      "outputs": [],
      "stateMutability": "nonpayable",
      "type": "function"
    },
    {
      "inputs": [
        {
          "internalType": "bytes32",
          "name": "role",
          "type": "bytes32"
        },
        {
          "internalType": "address",
          "name": "account",
          "type": "address"
        }
      ],
      "name": "revokeRole",
      "outputs": [],
      "stateMutability": "nonpayable",
      "type": "function"
    },
    {
      "inputs": [
        {
          "internalType": "bytes4",
          "name": "interfaceId",
          "type": "bytes4"
        }
      ],
      "name": "supportsInterface",
      "outputs": [
        {
          "internalType": "bool",
          "name": "",
          "type": "bool"
        }
      ],
      "stateMutability": "view",
      "type": "function"
    },
    {
      "inputs": [],
      "name": "symbol",
      "outputs": [
        {
          "internalType": "string",
          "name": "",
          "type": "string"
        }
      ],
      "stateMutability": "view",
      "type": "function"
    },
    {
      "inputs": [],
      "name": "totalSupply",
      "outputs": [
        {
          "internalType": "uint256",
          "name": "",
          "type": "uint256"
        }
      ],
      "stateMutability": "view",
      "type": "function"
    },
    {
      "inputs": [
        {
          "internalType": "address",
          "name": "to",
          "type": "address"
        },
        {
          "internalType": "uint256",
          "name": "value",
          "type": "uint256"
        }
      ],
      "name": "transfer",
      "outputs": [
        {
          "internalType": "bool",
          "name": "",
          "type": "bool"
        }
      ],
      "stateMutability": "nonpayable",
      "type": "function"
    },
    {
      "inputs": [
        {
          "internalType": "address",
          "name": "from",
          "type": "address"
        },
        {
          "internalType": "address",
          "name": "to",
          "type": "address"
        },
        {
          "internalType": "uint256",
          "name": "value",
          "type": "uint256"
        }
      ],
      "name": "transferFrom",
      "outputs": [
        {
          "internalType": "bool",
          "name": "",
          "type": "bool"
        }
      ],
      "stateMutability": "nonpayable",
      "type": "function"
    },
    {
      "inputs": [],
      "name": "unpause",
      "outputs": [],
      "stateMutability": "nonpayable",
      "type": "function"
    }
  ],
  "bytecode": "0x608060405234801561001057600080fd5b506040518060400160405280600c81526020017f42426974657320546f6b656e00000000000000000000000000000000000000008152506040518060400160405280600581526020017f4242544b4e000000000000000000000000000000000000000000000000000000815250816003908161008c919061087b565b50806004908161009c919061087b565b5050506000600660006101000a81548160ff0219169083151502179055506100cd6000801b3361016c60201b60201c565b506100fe7f9f2df0fed2c77648de5860a4cc508cd0818c85b8b8a1ab4ceeef8d981c8956a63361016c60201b60201c565b5061012f7f65d7a28e3265b37a6474929f336521b332c1681b933f6cb9f3376673440d862a3361016c60201b60201c565b506101673361014261026a60201b60201c565b600a61014e9190610abc565b620f424061015c9190610b07565b61027360201b60201c565b610c3a565b600061017e83836102fb60201b60201c565b61025f5760016005600085815260200190815260200160002060000160008473ffffffffffffffffffffffffffffffffffffffff1673ffffffffffffffffffffffffffffffffffffffff16815260200190815260200160002060006101000a81548160ff0219169083151502179055506101fc61036660201b60201c565b73ffffffffffffffffffffffffffffffffffffffff168273ffffffffffffffffffffffffffffffffffffffff16847f2f8788117e7eff1d82e926ec794901d17c78024a50270940304540a733656f0d60405160405180910390a460019050610264565b600090505b92915050565b60006012905090565b600073ffffffffffffffffffffffffffffffffffffffff168273ffffffffffffffffffffffffffffffffffffffff16036102e55760006040517fec442f050000000000000000000000000000000000000000000000000000000081526004016102dc9190610b8a565b60405180910390fd5b6102f76000838361036e60201b60201c565b5050565b60006005600084815260200190815260200160002060000160008373ffffffffffffffffffffffffffffffffffffffff1673ffffffffffffffffffffffffffffffffffffffff16815260200190815260200160002060009054906101000a900460ff16905092915050565b600033905090565b61037f83838361038460201b60201c565b505050565b6103926103a860201b60201c565b6103a38383836103ef60201b60201c565b505050565b6103b661061460201b60201c565b156103ed576040517fd93c066500000000000000000000000000000000000000000000000000000000815260040160405180910390fd5b565b600073ffffffffffffffffffffffffffffffffffffffff168373ffffffffffffffffffffffffffffffffffffffff16036104415780600260008282546104359190610ba5565b92505081905550610514565b60008060008573ffffffffffffffffffffffffffffffffffffffff1673ffffffffffffffffffffffffffffffffffffffff168152602001908152602001600020549050818110156104cd578381836040517fe450d38c0000000000000000000000000000000000000000000000000000000081526004016104c493929190610be8565b60405180910390fd5b8181036000808673ffffffffffffffffffffffffffffffffffffffff1673ffffffffffffffffffffffffffffffffffffffff16815260200190815260200160002081905550505b600073ffffffffffffffffffffffffffffffffffffffff168273ffffffffffffffffffffffffffffffffffffffff160361055d57806002600082825403925050819055506105aa565b806000808473ffffffffffffffffffffffffffffffffffffffff1673ffffffffffffffffffffffffffffffffffffffff168152602001908152602001600020600082825401925050819055505b8173ffffffffffffffffffffffffffffffffffffffff168373ffffffffffffffffffffffffffffffffffffffff167fddf252ad1be2c89b69c2b068fc378daa952ba7f163c4a11628f55a4df523b3ef836040516106079190610c1f565b60405180910390a3505050565b6000600660009054906101000a900460ff16905090565b600081519050919050565b7f4e487b7100000000000000000000000000000000000000000000000000000000600052604160045260246000fd5b7f4e487b7100000000000000000000000000000000000000000000000000000000600052602260045260246000fd5b600060028204905060018216806106ac57607f821691505b6020821081036106bf576106be610665565b5b50919050565b60008190508160005260206000209050919050565b60006020601f8301049050919050565b600082821b905092915050565b6000600883026107277fffffffffffffffffffffffffffffffffffffffffffffffffffffffffffffffff826106ea565b61073186836106ea565b95508019841693508086168417925050509392505050565b6000819050919050565b6000819050919050565b600061077861077361076e84610749565b610753565b610749565b9050919050565b6000819050919050565b6107928361075d565b6107a661079e8261077f565b8484546106f7565b825550505050565b600090565b6107bb6107ae565b6107c6818484610789565b505050565b5b818110156107ea576107df6000826107b3565b6001810190506107cc565b5050565b601f82111561082f57610800816106c5565b610809846106da565b81016020851015610818578190505b61082c610824856106da565b8301826107cb565b50505b505050565b600082821c905092915050565b600061085260001984600802610834565b1980831691505092915050565b600061086b8383610841565b9150826002028217905092915050565b6108848261062b565b67ffffffffffffffff81111561089d5761089c610636565b5b6108a78254610694565b6108b28282856107ee565b600060209050601f8311600181146108e557600084156108d3578287015190505b6108dd858261085f565b865550610945565b601f1984166108f3866106c5565b60005b8281101561091b578489015182556001820191506020850194506020810190506108f6565b868310156109385784890151610934601f891682610841565b8355505b6001600288020188555050505b505050505050565b7f4e487b7100000000000000000000000000000000000000000000000000000000600052601160045260246000fd5b60008160011c9050919050565b6000808291508390505b60018511156109d3578086048111156109af576109ae61094d565b5b60018516156109be5780820291505b80810290506109cc8561097c565b9450610993565b94509492505050565b6000826109ec5760019050610aa8565b816109fa5760009050610aa8565b8160018114610a105760028114610a1a57610a49565b6001915050610aa8565b60ff841115610a2c57610a2b61094d565b5b8360020a915084821115610a4357610a4261094d565b5b50610aa8565b5060208310610133831016604e8410600b8410161715610a7e5782820a905083811115610a7957610a7861094d565b5b610aa8565b610a8b8484846001610989565b92509050818404811115610aa257610aa161094d565b5b81810290505b9392505050565b600060ff82169050919050565b6000610ac782610749565b9150610ad283610aaf565b9250610aff7fffffffffffffffffffffffffffffffffffffffffffffffffffffffffffffffff84846109dc565b905092915050565b6000610b1282610749565b9150610b1d83610749565b9250828202610b2b81610749565b91508282048414831517610b4257610b4161094d565b5b5092915050565b600073ffffffffffffffffffffffffffffffffffffffff82169050919050565b6000610b7482610b49565b9050919050565b610b8481610b69565b82525050565b6000602082019050610b9f6000830184610b7b565b92915050565b6000610bb082610749565b9150610bbb83610749565b9250828201905080821115610bd357610bd261094d565b5b92915050565b610be281610749565b82525050565b6000606082019050610bfd6000830186610b7b565b610c0a6020830185610bd9565b610c176040830184610bd9565b949350505050565b6000602082019050610c346000830184610bd9565b92915050565b611c4080610c496000396000f3fe608060405234801561001057600080fd5b50600436106101585760003560e01c80635c975abb116100c3578063a217fddf1161007c578063a217fddf146103b3578063a9059cbb146103d1578063d539139314610401578063d547741f1461041f578063dd62ed3e1461043b578063e63ab1e91461046b57610158565b80635c975abb146102f157806370a082311461030f57806379cc67901461033f5780638456cb591461035b57806391d148541461036557806395d89b411461039557610158565b80632f2ff15d116101155780632f2ff15d14610259578063313ce5671461027557806336568abe146102935780633f4ba83a146102af57806340c10f19146102b957806342966c68146102d557610158565b806301ffc9a71461015d57806306fdde031461018d578063095ea7b3146101ab57806318160ddd146101db57806323b872dd146101f9578063248a9ca314610229575b600080fd5b610177600480360381019061017291906115e1565b610489565b6040516101849190611629565b60405180910390f35b610195610503565b6040516101a291906116d4565b60405180910390f35b6101c560048036038101906101c0919061178a565b610595565b6040516101d29190611629565b60405180910390f35b6101e36105b8565b6040516101f091906117d9565b60405180910390f35b610213600480360381019061020e91906117f4565b6105c2565b6040516102209190611629565b60405180910390f35b610243600480360381019061023e919061187d565b6105f1565b60405161025091906118b9565b60405180910390f35b610273600480360381019061026e91906118d4565b610611565b005b61027d610633565b60405161028a9190611930565b60405180910390f35b6102ad60048036038101906102a891906118d4565b61063c565b005b6102b76106b7565b005b6102d360048036038101906102ce919061178a565b61072a565b005b6102ef60048036038101906102ea919061194b565b6107a1565b005b6102f96107b5565b6040516103069190611629565b60405180910390f35b61032960048036038101906103249190611978565b6107cc565b60405161033691906117d9565b60405180910390f35b6103596004803603810190610354919061178a565b610814565b005b610363610834565b005b61037f600480360381019061037a91906118d4565b6108a7565b60405161038c9190611629565b60405180910390f35b61039d610912565b6040516103aa91906116d4565b60405180910390f35b6103bb6109a4565b6040516103c891906118b9565b60405180910390f35b6103eb60048036038101906103e6919061178a565b6109ab565b6040516103f89190611629565b60405180910390f35b6104096109ce565b60405161041691906118b9565b60405180910390f35b610439600480360381019061043491906118d4565b6109f2565b005b610455600480360381019061045091906119a5565b610a14565b60405161046291906117d9565b60405180910390f35b610473610a9b565b60405161048091906118b9565b60405180910390f35b60007f7965db0b000000000000000000000000000000000000000000000000000000007bffffffffffffffffffffffffffffffffffffffffffffffffffffffff1916827bffffffffffffffffffffffffffffffffffffffffffffffffffffffff191614806104fc57506104fb82610abf565b5b9050919050565b60606003805461051290611a14565b80601f016020809104026020016040519081016040528092919081815260200182805461053e90611a14565b801561058b5780601f106105605761010080835404028352916020019161058b565b820191906000526020600020905b81548152906001019060200180831161056e57829003601f168201915b5050505050905090565b6000806105a0610b29565b90506105ad818585610b31565b600191505092915050565b6000600254905090565b6000806105cd610b29565b90506105da858285610b43565b6105e5858585610bd7565b60019150509392505050565b600060056000838152602001908152602001600020600101549050919050565b61061a826105f1565b61062381610ccb565b61062d8383610cdf565b50505050565b60006012905090565b610644610b29565b73ffffffffffffffffffffffffffffffffffffffff168173ffffffffffffffffffffffffffffffffffffffff16146106a8576040517f6697b23200000000000000000000000000000000000000000000000000000000815260040160405180910390fd5b6106b28282610dd1565b505050565b6106e17f65d7a28e3265b37a6474929f336521b332c1681b933f6cb9f3376673440d862a336108a7565b610720576040517f08c379a000000000000000000000000000000000000000000000000000000000815260040161071790611a91565b60405180910390fd5b610728610ec4565b565b6107547f9f2df0fed2c77648de5860a4cc508cd0818c85b8b8a1ab4ceeef8d981c8956a6336108a7565b610793576040517f08c379a000000000000000000000000000000000000000000000000000000000815260040161078a90611afd565b60405180910390fd5b61079d8282610f27565b5050565b6107b26107ac610b29565b82610fa9565b50565b6000600660009054906101000a900460ff16905090565b60008060008373ffffffffffffffffffffffffffffffffffffffff1673ffffffffffffffffffffffffffffffffffffffff168152602001908152602001600020549050919050565b61082682610820610b29565b83610b43565b6108308282610fa9565b5050565b61085e7f65d7a28e3265b37a6474929f336521b332c1681b933f6cb9f3376673440d862a336108a7565b61089d576040517f08c379a000000000000000000000000000000000000000000000000000000000815260040161089490611a91565b60405180910390fd5b6108a561102b565b565b60006005600084815260200190815260200160002060000160008373ffffffffffffffffffffffffffffffffffffffff1673ffffffffffffffffffffffffffffffffffffffff16815260200190815260200160002060009054906101000a900460ff16905092915050565b60606004805461092190611a14565b80601f016020809104026020016040519081016040528092919081815260200182805461094d90611a14565b801561099a5780601f1061096f5761010080835404028352916020019161099a565b820191906000526020600020905b81548152906001019060200180831161097d57829003601f168201915b5050505050905090565b6000801b81565b6000806109b6610b29565b90506109c3818585610bd7565b600191505092915050565b7f9f2df0fed2c77648de5860a4cc508cd0818c85b8b8a1ab4ceeef8d981c8956a681565b6109fb826105f1565b610a0481610ccb565b610a0e8383610dd1565b50505050565b6000600160008473ffffffffffffffffffffffffffffffffffffffff1673ffffffffffffffffffffffffffffffffffffffff16815260200190815260200160002060008373ffffffffffffffffffffffffffffffffffffffff1673ffffffffffffffffffffffffffffffffffffffff16815260200190815260200160002054905092915050565b7f65d7a28e3265b37a6474929f336521b332c1681b933f6cb9f3376673440d862a81565b60007f01ffc9a7000000000000000000000000000000000000000000000000000000007bffffffffffffffffffffffffffffffffffffffffffffffffffffffff1916827bffffffffffffffffffffffffffffffffffffffffffffffffffffffff1916149050919050565b600033905090565b610b3e838383600161108e565b505050565b6000610b4f8484610a14565b90507fffffffffffffffffffffffffffffffffffffffffffffffffffffffffffffffff8114610bd15781811015610bc1578281836040517ffb8f41b2000000000000000000000000000000000000000000000000000000008152600401610bb893929190611b2c565b60405180910390fd5b610bd08484848403600061108e565b5b50505050565b600073ffffffffffffffffffffffffffffffffffffffff168373ffffffffffffffffffffffffffffffffffffffff1603610c495760006040517f96c6fd1e000000000000000000000000000000000000000000000000000000008152600401610c409190611b63565b60405180910390fd5b600073ffffffffffffffffffffffffffffffffffffffff168273ffffffffffffffffffffffffffffffffffffffff1603610cbb5760006040517fec442f05000000000000000000000000000000000000000000000000000000008152600401610cb29190611b63565b60405180910390fd5b610cc6838383611265565b505050565b610cdc81610cd7610b29565b611275565b50565b6000610ceb83836108a7565b610dc65760016005600085815260200190815260200160002060000160008473ffffffffffffffffffffffffffffffffffffffff1673ffffffffffffffffffffffffffffffffffffffff16815260200190815260200160002060006101000a81548160ff021916908315150217905550610d63610b29565b73ffffffffffffffffffffffffffffffffffffffff168273ffffffffffffffffffffffffffffffffffffffff16847f2f8788117e7eff1d82e926ec794901d17c78024a50270940304540a733656f0d60405160405180910390a460019050610dcb565b600090505b92915050565b6000610ddd83836108a7565b15610eb95760006005600085815260200190815260200160002060000160008473ffffffffffffffffffffffffffffffffffffffff1673ffffffffffffffffffffffffffffffffffffffff16815260200190815260200160002060006101000a81548160ff021916908315150217905550610e56610b29565b73ffffffffffffffffffffffffffffffffffffffff168273ffffffffffffffffffffffffffffffffffffffff16847ff6391f5c32d9c69d2a47ea670b442974b53935d1edc7fd64eb21e047a839171b60405160405180910390a460019050610ebe565b600090505b92915050565b610ecc6112c6565b6000600660006101000a81548160ff0219169083151502179055507f5db9ee0a495bf2e6ff9c91a7834c1ba4fdd244a5e8aa4e537bd38aeae4b073aa610f10610b29565b604051610f1d9190611b63565b60405180910390a1565b600073ffffffffffffffffffffffffffffffffffffffff168273ffffffffffffffffffffffffffffffffffffffff1603610f995760006040517fec442f05000000000000000000000000000000000000000000000000000000008152600401610f909190611b63565b60405180910390fd5b610fa560008383611265565b5050565b600073ffffffffffffffffffffffffffffffffffffffff168273ffffffffffffffffffffffffffffffffffffffff160361101b5760006040517f96c6fd1e0000000000000000000000000000000000000000000000000000000081526004016110129190611b63565b60405180910390fd5b61102782600083611265565b5050565b611033611306565b6001600660006101000a81548160ff0219169083151502179055507f62e78cea01bee320cd4e420270b5ea74000d11b0c9f74754ebdbfc544b05a258611077610b29565b6040516110849190611b63565b60405180910390a1565b600073ffffffffffffffffffffffffffffffffffffffff168473ffffffffffffffffffffffffffffffffffffffff16036111005760006040517fe602df050000000000000000000000000000000000000000000000000000000081526004016110f79190611b63565b60405180910390fd5b600073ffffffffffffffffffffffffffffffffffffffff168373ffffffffffffffffffffffffffffffffffffffff16036111725760006040517f94280d620000000000000000000000000000000000000000000000000000000081526004016111699190611b63565b60405180910390fd5b81600160008673ffffffffffffffffffffffffffffffffffffffff1673ffffffffffffffffffffffffffffffffffffffff16815260200190815260200160002060008573ffffffffffffffffffffffffffffffffffffffff1673ffffffffffffffffffffffffffffffffffffffff16815260200190815260200160002081905550801561125f578273ffffffffffffffffffffffffffffffffffffffff168473ffffffffffffffffffffffffffffffffffffffff167f8c5be1e5ebec7d5bd14f71427d1e84f3dd0314c0f7b2291e5b200ac8c7c3b9258460405161125691906117d9565b60405180910390a35b50505050565b611270838383611347565b505050565b61127f82826108a7565b6112c25780826040517fe2517d3f0000000000000000000000000000000000000000000000000000000081526004016112b9929190611b7e565b60405180910390fd5b5050565b6112ce6107b5565b611304576040517f8dfc202b00000000000000000000000000000000000000000000000000000000815260040160405180910390fd5b565b61130e6107b5565b15611345576040517fd93c066500000000000000000000000000000000000000000000000000000000815260040160405180910390fd5b565b61134f611306565b61135a83838361135f565b505050565b600073ffffffffffffffffffffffffffffffffffffffff168373ffffffffffffffffffffffffffffffffffffffff16036113b15780600260008282546113a59190611bd6565b92505081905550611484565b60008060008573ffffffffffffffffffffffffffffffffffffffff1673ffffffffffffffffffffffffffffffffffffffff1681526020019081526020016000205490508181101561143d578381836040517fe450d38c00000000000000000000000000000000000000000000000000000000815260040161143493929190611b2c565b60405180910390fd5b8181036000808673ffffffffffffffffffffffffffffffffffffffff1673ffffffffffffffffffffffffffffffffffffffff16815260200190815260200160002081905550505b600073ffffffffffffffffffffffffffffffffffffffff168273ffffffffffffffffffffffffffffffffffffffff16036114cd578060026000828254039250508190555061151a565b806000808473ffffffffffffffffffffffffffffffffffffffff1673ffffffffffffffffffffffffffffffffffffffff168152602001908152602001600020600082825401925050819055505b8173ffffffffffffffffffffffffffffffffffffffff168373ffffffffffffffffffffffffffffffffffffffff167fddf252ad1be2c89b69c2b068fc378daa952ba7f163c4a11628f55a4df523b3ef8360405161157791906117d9565b60405180910390a3505050565b600080fd5b60007fffffffff0000000000000000000000000000000000000000000000000000000082169050919050565b6115be81611589565b81146115c957600080fd5b50565b6000813590506115db816115b5565b92915050565b6000602082840312156115f7576115f6611584565b5b6000611605848285016115cc565b91505092915050565b60008115159050919050565b6116238161160e565b82525050565b600060208201905061163e600083018461161a565b92915050565b600081519050919050565b600082825260208201905092915050565b60005b8381101561167e578082015181840152602081019050611663565b60008484015250505050565b6000601f19601f8301169050919050565b60006116a682611644565b6116b0818561164f565b93506116c0818560208601611660565b6116c98161168a565b840191505092915050565b600060208201905081810360008301526116ee818461169b565b905092915050565b600073ffffffffffffffffffffffffffffffffffffffff82169050919050565b6000611721826116f6565b9050919050565b61173181611716565b811461173c57600080fd5b50565b60008135905061174e81611728565b92915050565b6000819050919050565b61176781611754565b811461177257600080fd5b50565b6000813590506117848161175e565b92915050565b600080604083850312156117a1576117a0611584565b5b60006117af8582860161173f565b92505060206117c085828601611775565b9150509250929050565b6117d381611754565b82525050565b60006020820190506117ee60008301846117ca565b92915050565b60008060006060848603121561180d5761180c611584565b5b600061181b8682870161173f565b935050602061182c8682870161173f565b925050604061183d86828701611775565b9150509250925092565b6000819050919050565b61185a81611847565b811461186557600080fd5b50565b60008135905061187781611851565b92915050565b60006020828403121561189357611892611584565b5b60006118a184828501611868565b91505092915050565b6118b381611847565b82525050565b60006020820190506118ce60008301846118aa565b92915050565b600080604083850312156118eb576118ea611584565b5b60006118f985828601611868565b925050602061190a8582860161173f565b9150509250929050565b600060ff82169050919050565b61192a81611914565b82525050565b60006020820190506119456000830184611921565b92915050565b60006020828403121561196157611960611584565b5b600061196f84828501611775565b91505092915050565b60006020828403121561198e5761198d611584565b5b600061199c8482850161173f565b91505092915050565b600080604083850312156119bc576119bb611584565b5b60006119ca8582860161173f565b92505060206119db8582860161173f565b9150509250929050565b7f4e487b7100000000000000000000000000000000000000000000000000000000600052602260045260246000fd5b60006002820490506001821680611a2c57607f821691505b602082108103611a3f57611a3e6119e5565b5b50919050565b7f4e6f207469656e657320656c20726f6c20646520506175736572000000000000600082015250565b6000611a7b601a8361164f565b9150611a8682611a45565b602082019050919050565b60006020820190508181036000830152611aaa81611a6e565b9050919050565b7f4e6f207469656e657320656c20726f6c206465204d696e746572000000000000600082015250565b6000611ae7601a8361164f565b9150611af282611ab1565b602082019050919050565b60006020820190508181036000830152611b1681611ada565b9050919050565b611b2681611716565b82525050565b6000606082019050611b416000830186611b1d565b611b4e60208301856117ca565b611b5b60408301846117ca565b949350505050565b6000602082019050611b786000830184611b1d565b92915050565b6000604082019050611b936000830185611b1d565b611ba060208301846118aa565b9392505050565b7f4e487b7100000000000000000000000000000000000000000000000000000000600052601160045260246000fd5b6000611be182611754565b9150611bec83611754565b9250828201905080821115611c0457611c03611ba7565b5b9291505056fea26469706673582212201326053959a23a722afdfabbf0a4156c4ba2b0edda8eb61f798bc16be68c15dd64736f6c634300081b0033",
  "linkReferences": {},
  "deployedLinkReferences": {}
}